:01023F0000BE
:06055A000000000000009B
:0C09640000000000000000000000000087
:0C0D740000000000000000000000000073
:10E00000113C4027058EFE5A2008113C8027268EA1
:10E01000FE6FBDE2EAEC6C108E04C2BDE1928E048C
:10E02000C2BDE2EABDE2F78EE5D4AF6C8EE000AF90
:10E03000688603A7623B3B113D018643B7C0088653
:10E04000D5B7C0088EFDE6C602A680270AF5C0082F
:10E0500027FBB7C00920F28E0000AF84AC842609EC
:10E0600030028C800026F32012C680108E80003192
:10E070003F26FC5A26F58EFE4120CC8E0000310151
:10E0800010867FFF6F8411381210CE800086011F2A
:10E090008B860197568EFE31BDE2EABDE34BBDE8AB
:10E0A000A28695B7C0081CBF0D4627068E0001BD8D
:10E0B000F791104FDD2C9749BDE1668D0220F3BD2D
:10E0C000E38427100D25264DBDE49D261CBDE3DC11
:10E0D0009E0420EB0D492604DC2C2701398EFE54CA
:10E0E0000D25270230037EE2EA96442705C606BDC9
:10E0F000E5D18D0C8EE0FB34101F25BDE6F920BF65
:10E100009E04DC2810370127088620A184260230CF
:10E11000011F10204CBDE49D271C0D4327108DE0EE
:10E120008EE12734101F25BDE6F99F0420911F21A1
:10E130008D209E042089BDE3DC0D3F26073710BDEE
:10E14000E56620EEAE42BDE566AEC4BDE56633448D
:10E1500020E0109E08109F1486BDBDE57D109F082D
:10E16000399320DD2A398E043E9F20C684BDE30DFD
:10E170004FDD265FDD28DD2A393404C630840F8167
:10E180000A2502C637103098A7A035043944444404
:10E19000443934068DF78DE1A6E48DDDA6618DED61
:10E1A0008DD7A6618DD335066FA43934068DDE8DEB
:10E1B000C8A6E48DC435066FA4393402A680A7A092
:10E1C00026FA3502398DF3313F20E08DED313F20C5
:10E1D000C18E0512BDE2EA7EE2F7B6C008340296AF
:10E1E00056340286019756BDE2F7108E05128EE274
:10E1F0001DA6628DD0EC638DD2EC658DCEA6678DA9
:10E20000C4EC688DC6EC6A8DC2EC6C8DBEEC6E8D74
:10E21000BA33E8101F308DB38DB732623B434320D1
:10E220000020442000205720002044502000205887
:10E23000200020592000205520002050432000209D
:10E240005320003410105F105CA68026FA105A3557
:10E2500010393416B6C00885802731F6C009C103CD
:10E26000272DC113273CC111273B9655810F260945
:10E270003404C6D5F7C00835048140270F4C9755A4
:10E280008E01579653E7864C843F975335163B32A1
:10E2900064965497530F5510AE618EE5D4AF61C6A6
:10E2A000033B4F20028601975620E134160D552678
:10E2B0000FC695F7C0081CBF8E0001BDF7FD20ED0D
:10E2C0001A400A551CBF8E01579654E686E7E44C67
:10E2D000843F97543516393404C602F5C00827FB2D
:10E2E0000D5627FCB7C0093504393416A68027041B
:10E2F0008DE520F835163934108EFE3E8DEC351044
:10E300003986088DD286208DCE860820CA5D2601EA
:10E310003934168D968108260BE16127F68DE2309F
:10E320001F5C20EF8115260BE16127E78DD3301F9D
:10E330005C20F5810D27078D9EA7805A26D5862063
:10E340008D951F10A362E761351639BDEBA1BDEBBA
:10E35000AC8EFDD21086000C108E0D80109F061121
:10E360003812109F08BDE98F7EFBA03406DC2826FA
:10E3700006DC20D326DD281037103506250139C6E6
:10E3800012BDE5D18DE52708A680812027F6301F34
:10E390001FA89F021F8A395F8DD1270AA6805C8142
:10E3A0002026F5301F5A1FA89F04D7411F8A398D98
:10E3B000BA2702A68039E68434108EFF8CA6812706
:10E3C00007103798270720F50F3635103996239711
:10E3D00036A61F9723351030010A41390F3E0F3FF3
:10E3E000964197429E028DCEA684812D26060A4133
:10E3F0000C3E30011F121FC1BDE659BDE6591F2159
:10E40000BDE6594FD6411F01BDE659BDF4B63710E0
:10E410001F103710104D2717108300012623A684E4
:10E42000812E261D0C3F0D3E2725BDF3CD2020EC6F
:10E43000C12705C604BDE5D10D3E2713BDEFBB20A6
:10E440000E3344964297419E02C602BDE5D1129614
:10E450003627029723390F3E1F100D402708104D15
:10E460002A040C3E10401F06104F108E05256FA287
:10E47000119E228630C10A25028637103089E7A214
:10E48000104F105D26EAC6200D3E2702C62DE7A2DA
:10E49000C620108C0512260139E7A220F59E02BD88
:10E4A000E3979E089F1A9E02109E0626061FC21022
:10E4B0009F0E39A6A4841F342010378926383121B5
:10E4C000A6A01F9EE680C1612506C17B2402C02054
:10E4D0001037891FE9261F5A26E63510E6844F5863
:10E4E0004997434F584997449E049F023122DC1AB2
:10E4F000103220DD0E393520109F1A4FE6A0C41FC0
:10E5000031AB9E02D64110AEA420A010389E089FC9
:10E510000C9E069F0ABDE6F9BDE3842605C605BD2F
:10E52000E5D1BDE397109E0210322134109E08A65B
:10E530006181202505C610BDE5D1A78010A6E11E8A
:10E54000121FF9A68081612506817B24028020A705
:10E55000A05A26EF1F10BDE1619E06AFA1109F08D3
:10E56000109F12103939109E08868E8D1086BD10AE
:10E570009F148D06109F0839867E8EE659A7A0AF9E
:10E58000A139BDE97010AEC4AE421037211FA91FDA
:10E59000C133441F9A39BDE97510A6C410AE42AE0E
:10E5A000443346393420108E04C28620A7A0862822
:10E5B000A7A0DC2CBDE192862FA7A0DC2ABDE192AA
:10E5C0008629A7A06FA48E04C2BDE2EA35207EE2B0
:10E5D000F710AEE4860FBDE2D7BDE2F7C102261800
:10E5E0008627BDE2D7A680BDE2D70A4126F7862757
:10E5F000BDE2D78620BDE2D78EFE835D2707A680C9
:10E6000026FC5A20F6BDE2EA8D9A1F20108E04C225
:10E61000BDE1928620A7A06FA48E04C2BDE2EABD30
:10E62000E2F7108CE00027023262118C8000240592
:10E6300010AEE420D510CE80000D2527100F259EAA
:10E640000C9F080D3426049E0A9F060F34BDEBACC8
:10E65000BDEBA1BDFBA07EE0B211830240230336D7
:10E6600010395FBDE5D11211830340240637101025
:10E6700037C139C601BDE5D1123406CC043E930042
:10E6800010471FA8E7E41F8A3506398DEC817F27E4
:10E690000D1F27109E00AFA3109F001F7239C607E1
:10E6A000BDE5D1128DD3270D1F27109E00AEA110FE
:10E6B0009F001F7239C608BDE5D10D35260139C648
:10E6C00009BDE5D134101FC10D4927029E208DBB25
:10E6D0009E2C8DB79E2A8DB39E268DAF3510398D19
:10E6E000C39F268DBF9F2A8DBB9F2C8DB70F4910CE
:10E6F00037C127049F2003493934209E2C271E1040
:10E7000038BDE659BDEA90103937109F201F12DC42
:10E710002631AB109F283520DC2A308B398E043E01
:10E720000D4927E79E2020E3202410031755000001
:10E7300034168E014C8D1E5D26FB4FE6013606E633
:10E74000023606E6033606E6043606E6053606E633
:10E7500006360635965F34108EC0408D623510A1A6
:10E760000627015CA70634108EC0428D52351084F6
:10E770007FA10527015CA70534108EC0448D40356C
:10E7800010843FA10427015CA70434108EC0468D7D
:10E790002E3510843FA10327015CA70334108EC0DF
:10E7A000488D1C3510841FA10227015CA70234107C
:10E7B0008EC04A8D0A3510A10127015CA7013934AA
:10E7C00004A60148484848E600C40F3404ABE035CD
:10E7D000843416308DFF518607B7C04F8604B7C00A
:10E7E0004E4FB7C04DA60134108EC04A8D40351033
:10E7F000A60234108EC0488D353510A60334108E15
:10E80000C0468D2A3510A60434108EC0448D1F35A5
:10E8100010A60534108EC0428D143510A606341093
:10E820008EC0408D0935108604B7C04F359634042C
:10E830001F8944444444A701C40FE7003584B6C08F
:10E84000C7858026F9398DF627031A04398E2000F2
:10E850008640B5C0C72604301F26F7398DE0B6C004
:10E86000C784012703B6C0C1398DDB270AD747F714
:10E87000C0C78DE897483986FF20F98DC986E0B773
:10E88000C0C620C29E083088363410118614EC842D
:10E890001E98ED81114A26F66F843510BDE2EA7E9E
:10E8A000E2F70F468DA027308DD18601B7C0C1C6D3
:10E8B000EF8DB62623860AB7C0C28603B7C0C18DC6
:10E8C000A88682B7C0C18DA1C6EC8D9D260A9E0880
:10E8D0008D078DB08601974639B6C0C785082712C7
:10E8E00010860200108EC0C034011A50113B213531
:10E8F0000139C611BDE5D112B6C0C784888108268A
:10E90000F710860200108EC0C0113A1239BDE83EE1
:10E91000BDE87BEC641048F7C0C3B7C0C41FA8842F
:10E9200001B7C0C58602B7C0C2390D46260220C253
:10E930001F278DD9C620BDE869AE648D9CBDE83E19
:10E940008D971F72390D46260220A71F278DBEC640
:10E9500030BDE869AE648DA0BDE83E8D9B1F723965
:10E96000103703220139C601BDE5D1CC033E20F0AA
:10E97000CC033C20EBCC033A20E6CC033820E10D5D
:10E98000454D5054592D42554646455253000010AE
:10E990004FDD1E8E05608D038E097030890400EDF9
:10E9A0008439034D4343E97F4FD64A1F0130017E2E
:10E9B000E65907414C49474E4544E9A220AD05437D
:10E9C00048415253E9B220A30543454C4C2BE9BEC4
:10E9D0008D99ECC4C30002EDC4390C534156452D4A
:10E9E00042554646455253E9C88E05608D038E094F
:10E9F00070342634108605A489040181052617AEDB
:10EA00008904023410BDE9453262AEE43089040164
:10EA1000A68484FBA784351035263905464C55530A
:10EA200048E9DA8DC47EE98F06555044415445EAE1
:10EA30001B9E1E270A30890401A6848A04A78439F4
:10EA400006425546464552EA28BDE6671F128E0526
:10EA500060C602A68904018501270C10AC89040256
:10EA600026059F1E361039308904105A26E58E057A
:10EA7000609C1E26038E0970BDE9F18601A78904FA
:10EA80000110AF89040220DA05424C4F434BEA40A3
:10EA90008DB737103410A689040184022613342060
:10EAA000BDE92A3262AEE430890401A6848A02A755
:10EAB00084351036103906524546494C4CEA889E3A
:10EAC0002C260B0D4910260DC4BDE166200830012F
:10EAD0009F2C1FC19F2A7EF89903424C4BEAB68EA9
:10EAE000012C7EE659033E494EEAD98E012A7EE684
:10EAF0005903534352EAE58E012E7EE659055449E7
:10EB0000434B53EAF11FC1BDE6597EE65904525406
:10EB10004340EAFDBDFC421FC17EE6590452544306
:10EB200021EB0D7EF46B0457544340EB1C7EE73021
:10EB30000457544321EB267EE7D1044C495354EB50
:10EB4000300D462605C611BDE5D1BDFC33BDEA90AA
:10EB5000BDE6671F12BDE6679F2EC6103404BDE2F6
:10EB6000F71F21BDE6598E0040BDE659103012BD99
:10EB7000F71035045A26E53905414C49474EEB3A22
:10EB80003903533E44EB78BDE6673610104F1E0143
:10EB90004D102AFAC4301F7EE659044E434C52EB06
:10EBA00081CE0340390452434C52EB9A8E043E9F6F
:10EBB0000039054445505448EBA5CC034010323091
:10EBC00010441F017EE65906435245415445EBB2BD
:10EBD000BDE50B868EA7A01F213008AFA186BDBD65
:10EBE000E57A8639A7A03122109F089E0C9F06392E
:10EBF000C5444F45533EEBC78EEBFE7EE1529E0669
:10EC0000E680C41F3A3008A68481392705C60EBDA8
:10EC1000E5D1867EA780352010AF8439874C4954D2
:10EC20004552414CEBF0BDE6670D25260139109E9B
:10EC300008868EBDE57D109F088EE6597EE152085C
:10EC4000434F4E5354414E54EC1CBDE6671F16BD56
:10EC5000E50B1F61868EBDE57DBDE578208A0856EF
:10EC600041524941424C45EC3FBDE50B868EA7A081
:10EC70001F2631251F211F62AFA1BDE57831227EFD
:10EC8000EBE809494D4D454449415445EC5EC68089
:10EC90009E06A684103598A78439085245535452CD
:10ECA000494354EC82C64020E709554E4D4F4E492A
:10ECB000544F52EC9A39074D4F4E49544F52ECA9DC
:10ECC000390649434845434BECB639C33F444FEC02
:10ECD000C18EECF8BDE1520C4ACC2603EDA1867E34
:10ECE000A7A01F21BDE6593122109F081F21BDE6B4
:10ECF00059104FDD180C3539BDE970AE4210AEC465
:10ED00003344103721270ABDE68B1F21BDE68B1C3B
:10ED1000FB39C2444FECCB8EED2BBDE1520C4A1FA8
:10ED2000C1BDE6591F21BDE65920C6BDFC4CBDF052
:10ED30006A7EF06AC44C4F4F50ED128EED7BBDE100
:10ED4000528E2503AFA1BDE667867EBDE57D109F8F
:10ED500008109F169E18270BEC8410AF841F01101B
:10ED60004D20F39F180A35BDE6672601390C35BDE5
:10ED7000E6598E0001BDE6597EEE238E000120107B
:10ED8000C52B4C4F4F50ED348EED8D20B1BDE66755
:10ED90001F16BDE6A41F12BDE6A4CC8000103020D3
:10EDA000103210103060290EBDE68B1030621F212A
:10EDB000BDE68B1CFE391A013946554E4C4F4F505B
:10EDC000ED80BDE6A47EE6A4C54148454144EDB9C9
:10EDD000109E08867EA7A01F213122109F080C35A7
:10EDE000BDE6598E00017EE659C24946EDC88EE661
:10EDF00067BDE152CC2603EDA10C4A20D6C6554E84
:10EE00004C455353EDE98EEF0EBDE15220E0C44571
:10EE10004C5345EDFD8DB9BDF44F2007C454484512
:10EE20004EEE0EBDE667301F1026F893109E08BD0B
:10EE3000E66710AF84109F160A3539013DEE1CBD00
:10EE4000E97010ECC433421FC11037602602301F36
:10EE5000AFC439023C3EEE3BBDE97010ECC4334216
:10EE60001FC11037602702301FAFC439023C3DEE8E
:10EE700053BDE97010AEC4AE42104F1037212E02C0
:10EE8000104A3342EDC43903584F52EE6CBDE9705D
:10EE9000ECC410A6421036603342EDC439024F5222
:10EEA000EE87BDE970ECC410A64210356020E9037E
:10EEB000414E44EE9DBDE970ECC410A64210346092
:10EEC00020D606494E56455254EEAFBDE6671F1098
:10EED00010431F0136103902303EEEC2BDE6671FF7
:10EEE00010104D2F068EFFFF3610391FC136103916
:10EEF00002303CEED7BDE6671F10104D2C068EFF8A
:10EF0000FF3610391FC136103902303DEEF0BDE634
:10EF1000671F101FC1104D2703361039301F20F90D
:10EF200003303C3EEF098DE620A1034E4F54EF2005
:10EF300020DC02553EEF2ABDE5822302301F361049
:10EF40003902553CEF32BDE5822402301F361039BC
:10EF5000013EEF41BDE5822F02301F361039013CE2
:10EF6000EF50BDE5822C02301F361039034D415859
:10EF7000EF5EBDE6671F12BDE6671037212C021F4A
:10EF800021361039034D494EEF6CBDE6671F12BDA7
:10EF9000E6671037212F021F2136103903414253F3
:10EFA000EF84BDE6671F10104D2A0410401F013684
:10EFB0001039064E4547415445EF9CBDE96BECC402
:10EFC0001040EDC439C5424547494EEFB20C359E5D
:10EFD00008BDE6591FC17EE659C5414741494EEF7C
:10EFE000C5BDE6671026F6D7BDE667109E08109FE0
:10EFF00014867EBDE57D109F080A350C4A39C4454C
:10F00000584954EFD99E08301D109E141037212600
:10F0100005867EA7843930038639A7809F0839C5C5
:10F02000554E54494CEFFEBDE6671026F6918EE62C
:10F0300067BDE1528E2603AFA1BDE66720B3C55779
:10F0400048494C45F01FBDEDEE7EF44FC652455089
:10F05000454154F03E8D8A7EEE2342523EF04CBD37
:10F06000E6A47EE659423E52F05ABDE6677EE68B44
:10F07000C54C45415645F0658EEDC2BDE152867ED8
:10F08000A7A01F21DC18EDA19F18109F0839414946
:10F09000F0705FBDE679103789240A9E004F104852
:10F0A000AE8B7EE659C608BDE5D1425240F08E20B7
:10F0B000E1424927F0AAC60120D9414AF0B1C6026F
:10F0C00020D1424A27F0BAC60320C8414BF0C2C63D
:10F0D0000420C00451554954F0CB0F25BDEBAC10B2
:10F0E000CE8000BDE2F77EE0B20541424F5254F0BF
:10F0F000D3C603BDE5D10446494E44F0E9BDE96BF2
:10F10000AEC42605C60DBDE5D16D8426051FC17EA2
:10F11000E659DC023406E680D7419F02BDE4A2DC5A
:10F120000EDD103506DD021037C227E110AFC48EA8
:10F13000FFFF0D43270230027EE659015DF0F6869F
:10F14000FF972539C15BF13B4F20F60127F144BD04
:10F15000F6B9BDF2C88DA6ECC42703334239334457
:10F160009E02BDE384C602BDE5D1C35B275DF14BC2
:10F170008DDD7EEC26C8504F5354504F4E45F16AFA
:10F18000BDE6F9BDE3842605C605BDE5D1BDE49D18
:10F1900026079E02C602BDE5D11F210D432708BDEB
:10F1A000E152DC027EE161BDE5668EF1BA20F048F5
:10F1B000434F4D50494C452CF175BDE6677EE152F9
:10F1C000013AF1AF0F34CCFFFF97251043973597E5
:10F1D0004ADD14DD160D3426037EE50B9E089F0CD8
:10F1E0009F1239073A4E4F4E414D45F1C086019767
:10F1F0003420D3C13BF1E3BDE6BA0F259E0C0D349C
:10F2000026049F0620050F34BDE6599E08DC14270E
:10F2100013311D103702260C867EA7A4109E1610EF
:10F22000371226048639A7809F0839C752454355AF
:10F23000525345F1F39E127EE152064D41524B4529
:10F2400052F22B109E089E063430BDE50BAE62864E
:10F250008EBDE57DCC9F08EDA1AEE4868EBDE57D3B
:10F26000CC9F06EDA18639A7A032647EEBE8074566
:10F27000584543555445F23ABDE66727021F15C667
:10F280000DBDE5D103425945F26E7EE037C65B43C2
:10F290004841525DF2848D0A7EEC26044348415277
:10F2A000F28DBDE6F9BDE3842712E6844F1F01BD50
:10F2B000E6599E02BDE3971F107EE161C60DBDE5D4
:10F2C000D104574F5244F29B0F4BBDE6671F1610F7
:10F2D0009E0834206FA0BDE6F9BDE3AF271B0D4BA0
:10F2E000260C1037F827F2301FBDE3AF270B10377D
:10F2F000F82706A7A06CF420F01F10BDE1613510BF
:10F300003610398128F2C18E0029BDE6598DB97EAB
:10F31000FC4206534F55524345F3039E20BDE65928
:10F320009E267EE659815CF312DC2C270BDC2AC476
:10F33000C0CB408900DD2A398DE1BDE6679F2A7E7A
:10F34000FC42822E22F3258D120D2526037EF71016
:10F350008EF7107EE152825322F3428601974B0DC5
:10F3600025260C8E0022BDE659BDF2CA7EF72E106E
:10F370009E08867EA7A034203122109F088E00228E
:10F38000BDE659BDF2CABDE6674FE6843001308B59
:10F390003520AFA43122868EA78010AF819F088EC2
:10F3A000E659BDE1528EF72E7EE15202442BF35610
:10F3B000BDE97AEC46E342ED46EC4410A9C4ED44C5
:10F3C00033443907444E4547415445F3ABBDE970DA
:10F3D00010A6421053ECC41043108B00011089009A
:10F3E0000010EDC43902442DF3C3BDE97AEC46A305
:10F3F00042ED46EC4410A2C4ED443344390344309A
:10F400003DF3E5BDEEA27EEF0E02443CF3FDBDE907
:10F410007A115FECC410A3442611EC4210A34623DA
:10F4200002115A1FF91DED463346392FF620F20519
:10F43000324F564552F409BDE97A10EC441F61BDC4
:10F44000E6591F017EE659053253574150F42FBD4E
:10F45000E97AAE4410AE4610ECC410ED44AFC410CF
:10F46000AF4239053244524F50F447BDE97033443E
:10F47000390432445550F463BDE97010ECC41F6187
:10F48000BDE6591F017EE659023221F471BDE975CE
:10F4900010EC4210EDD4334639023240F488BDE915
:10F4A0006B10ECD410A7C41F017EE659073E4E55E1
:10F4B0004D424552F499BDE97AAE42ECC42770E65C
:10F4C00084C030256AC10A2510C1112562C13125C9
:10F4D00006C14A225AC020C007D123245232766F77
:10F4E000E4E7611F3733483162118604A6C2D62390
:10F4F0003DEDA1114A26F51F73A663A747A662AB8F
:10F5000065A746A664A967A745A666A969A7442575
:10F51000216D68261DEC46E3E4ED46EC44108900BD
:10F5200000ED44326AECC4104AEDC43001208CAFC7
:10F530004239C604BDE5D102233EF4ACBDE667BD49
:10F54000E6678E01EB3610BDE2431F6136103904C9
:10F550005349474EF537BDE6671F10104D2C04C6C2
:10F560002D20663904484F4C44F54FBDE6671F1007
:10F570002057022353F5648601973D20060123F5A9
:10F58000720F3DBDE6671F12BDE66732E8EFDC2271
:10F59000ED6EAF6C10AF6A8D43E6618630C10A250F
:10F5A0000286371030898D210D3D2711EC6810AA95
:10F5B00066270AAE6810AE6632E81120CEAE683615
:10F5C00010AE66361032E811398E01EBBDE2431001
:10F5D0003061105C3101113912D7EB39CC8000ED6C
:10F5E000644FED66ED68ED6AED6211C61F686369F0
:10F5F000621FA88401A7E812EC6E1048ED6EEC6C57
:10F600001049ED6C1FA88401AA63A7631F89A66235
:10F610006DE812260610A3E8102513A3E810ED628A
:10F62000EC6810AA64ED68EC6A10AA66ED6AEC64F6
:10F630001044ED64EC661046ED66115A2CAF3902A9
:10F640003C23F57D0FEB39012EF63F86019740BD37
:10F65000E667BDE4568E05128620A18027FC301F88
:10F66000BDE2EA7EE2D702552EF6470F4020E002C7
:10F670002E52F66686019740BDE6673410BDE667F8
:10F68000BDE4568E05128620A18027FC301FBDE206
:10F690004335061E061032062F0D8620105D270703
:10F6A000BDE2D7105A20F57EE2EA03552E52F66FDE
:10F6B0000F4020C402424CF6AA8E00207EE6590577
:10F6C0005350414345F6B486207EE2D7065350415D
:10F6D000434553F6BFBDE66786201F16105D260121
:10F6E00039BDE2D7105A20F60450414745F6CC8E7A
:10F6F000FDDE7EE2EA024352F6E87EE2F703504185
:10F7000044F6F58E01977EE6590454595045F6FDAE
:10F71000BDE6671F16BDE667105D260139A680BDF0
:10F72000E2D7105A20F405434F554E54F709BDE671
:10F7300067E68036104F1F017EE659064143434578
:10F740005054F726BDE6671F10BDE667BDE30D4FB9
:10F7500036063949494E54455250524554F73B9E5E
:10F760002C260B8E043E0D4927109E20200CBDE652
:10F7700059BDEA903710104FDD289F20DC2A103049
:10F78000017EE0BF044C4F4144F753BDE6672601BC
:10F7900039BDE6C49F2CCC0400DD26104F9749DD0F
:10F7A0002ADD288DBABDE6DF7EE6F9084556414CD4
:10F7B00055415445F784BDE970AE4210AEC43344A0
:10F7C000BDE6C49F20109F2686FF9749104FDD2C71
:10F7D00020CD0454485255F7ABBDE6671F12BDE675
:10F7E00067103712240139343036108D9E35303091
:10F7F0000120EE024D53F7D2BDE667270BCC00C2C5
:10F80000104A26FC301F26F539044B45593FF7F3C3
:10F810001FC10D552702301F7EE659034B4559F88D
:10F8200009BDE2AB1F894F1F017EE65904454D49D2
:10F8300054F81BBDE6671F101F987EE2D7012BF816
:10F840002CBDE970EC42E3C4ED4233423902312D64
:10F85000F83DBDE96BECC4104AEDC43902312BF818
:10F860004DBDE96BECC4104CEDC439054348415221
:10F870002BF85C20EC012DF86BBDE970EC42A3C4C1
:10F88000ED423342390546414C5345F8751FC17E60
:10F89000E6590454525545F8858EFFFF7EE659051A
:10F8A0005348494654F892BDE97010A6C4EC421082
:10F8B0005D27122D081048270C105A20F2104427FB
:10F8C00004105C20EAED42334239012AF89F0F3AD6
:10F8D000BDE970EC4211AFC410A7420D3A260333C4
:10F8E0004239EDC439024D2AF8CA8601973A20E020
:10F8F00003554D2AF8E5BDE970327AEF64104FEDFB
:10F90000E4ED623141336311C602AE643003118607
:10F9100002A684E6A43DE35FED5F24026C5E335FE4
:10F92000301F114A26EB3341313F115A26DCEE6479
:10F9300010ECE410EDC43266390543454C4C53F8E5
:10F94000F0200502322AF939BDE96BECC41048ED0C
:10F95000C43902322FF943BDE96BECC41047EDC442
:10F9600039034D4F44F952860197372031042F4D0A
:10F970004F44F9610F37202606464D2F4D4F44F96D
:10F980006D86089737201706534D2F52454DF9784D
:10F99000861897372008012FF987860297370F3B83
:10F9A0000F380F398601D637C50827029738C5109A
:10F9B00027029739C407D7370D382605BDE97020CF
:10F9C00003BDE9750D392608A642A8C42A020C3BDE
:10F9D0000D38270510EC422009104F10A6422A02CC
:10F9E000104311AEC48D1F0D38270233420D372648
:10F9F00006ED4210A7C43933421F0796378101260E
:10FA0000F21F70EDC439104D27080D3B2704105A22
:10FA1000E3C439022A2FF9968601973CBDE9750F98
:10FA20003BEC4411AF423402A8C42A020C3B35021D
:10FA300011AEC48DD133420D3C2606ED4210A7C451
:10FA400039334210A7C439052A2F4D4F44FA130FFA
:10FA50003C20C906554D2F4D4F44FA47BDE975EC82
:10FA6000C42605C604BDE5D1BDE6671F10BDE66727
:10FA70001F12BDE66732E8EFED6EAF6C10AF6ABDE6
:10FA8000F5DCEC6626DDAEE43610AE68361032E802
:10FA900011390153FA531F417EE659025340FA923D
:10FAA000AEE47EE659075041594C4F4144FA9B9EC3
:10FAB000107EE65905574F524453FAA59E089F1AE7
:10FAC0009E069F1C108E0512E6803404C41F4F341E
:10FAD000041F061138123502C6201032898620A76D
:10FAE000A05A26FB6FA03410BDE2F78E0512BDE2CE
:10FAF000EAAEE430021F10108E0512BDE1928E05B1
:10FB000012BDE2EA8609BDE2D79E1A10AEE43122A8
:10FB10001032211F10108E0512BDE1928E0512BD0C
:10FB2000E2EA8609BDE2D78E0512E662862DC5801F
:10FB300027028649A780862DC54027028643A780D5
:10FB4000865210AEE43122108C0D842708108CE010
:10FB50000024028657A7806F848E0512BDE2EA9EBC
:10FB60001C8C0D8026088EFDC89F1C8EFDD29F1A0E
:10FB700035103504AE841026FF48390553544154DE
:10FB800045FAB48E01247EE6590442415345FB7B7D
:10FB90008E01227EE65907444543494D414CFB897D
:10FBA000CC000ADD223903484558FB96CC001020D2
:10FBB000F2022E27FBA68624BDE2D7BDE6671F1002
:10FBC000108E04C2BDE1928E04C27EE2EA022E5380
:10FBD000FBB1CC03401032301044272A3440CE030E
:10FBE00040860197403404AEC3BDE4568E0512A68C
:10FBF00080812027FA301FBDE2EA8620BDE2D7359A
:10FC0000045A26E1354039043F445550FBCDBDE64A
:10FC10006736101026EA4239045455434BFC078DD1
:10FC20002B2065034E4950FC188D212015034455A7
:10FC300050FC23BDE96BAEC47EE6590444524F50DC
:10FC4000FC2D7EE6670453574150FC3BBDE9701024
:10FC5000ECC41E0610EDC439045049434BFC45BDAD
:10FC6000E667CC03401032301044103701240D1FDA
:10FC700010104830CB1F12AE84361039C60DBDE5CA
:10FC8000D1044F564552FC588E000120D504524FE6
:10FC90004C4CFC81BDE6671F168DC73121303E10EC
:10FCA0005C1030661139127EE66703524F54FC8DAA
:10FCB0008E000220E2042D524F54FCAA8DF220F057
:10FCC00002432CFCB5BDE6671F10109E08E7A0108C
:10FCD0009F0839012CFCC0BDE667109E08AFA1103B
:10FCE0009F083905414C4C4F54FCD3BDE667DC08F6
:10FCF000308B9F08390446494C4CFCE3BDE6671F36
:10FD000016BDE6671F121E26BDE667105D2F0B1F8E
:10FD100020E784105A31011138123905424C414E06
:10FD20004BFCF51086002020D806434D4F56453E2B
:10FD3000FD1BBDE596105D270D105A103061103087
:10FD400062105C1139123905434D4F5645FD29BDEE
:10FD5000E59611381239044D4F5645FD47BDE596DD
:10FD6000105D270D1F2010321010376025CB113881
:10FD70001239044C415354FD569E067EE659044800
:10FD8000455245FD729E087EE659022B21FD7EBD3F
:10FD9000E970AEC4EC84E342ED843344390243217C
:10FDA000FD8ABDE970A643A7D43344390121FD9DE6
:10FDB000BDE970EC42EDD4334439024340FDACBDA3
:10FDC000E96B4FE6D4EDC439013FFDBABD0D847E29
:10FDD000F64B0140FDC8BDE96BECD4EDC4391B5BAB
:10FDE000481B5B4A0D000D0A5A3739466F7274681A
:10FDF0002F4149203633303920414E5320466F720F
:10FE000074682053797374656D0D0A323032343062
:10FE100037313920284329204672616E636F697338
:10FE2000204C616167656C20323031390D0A0D0A52
:10FE30000052414D204F4B3A203332204B420D0AA5
:10FE40000052414D20636865636B206661696C6593
:10FE5000640D0A00206F6B0D0A00496C6C656761C8
:10FE60006C206F70636F6465206E65617220004462
:10FE700069766973696F6E2062792030206E6561E2
:10FE80007220004461746120737461636B206F762B
:10FE90006572666C6F77004461746120737461638E
:10FEA0006B20756E646572666C6F77003F005573EA
:10FEB00065722041424F5254004F6F52206572725A
:10FEC0006F72004D697373696E6720776F7264207B
:10FED0006E616D6500496E636F7272656374205365
:10FEE000544154450052657475726E207374616399
:10FEF0006B206F766572666C6F77005265747572F1
:10FF00006E20737461636B20756E646572666C6FCE
:10FF10007700496C6C6567616C20636F6E737472F7
:10FF200075637400417373657274696F6E206661E6
:10FF3000696C656400004D697373696E6720646560
:10FF40006C696D6974657200496C6C6567616C20E1
:10FF5000617267756D656E74004E6F206D617463BC
:10FF600068696E672043524541544500004E616DFB
:10FF70006520746F6F206C6F6E6700494F2065724B
:10FF8000726F72003E494E204F6F52002410230AB8
:05FF90002502400800FD
:10FFF000E000E036E036E252E036E036E1DAE037C3
:00000001FF