:01023F0000BE
:06055A000000000000009B
:0C09640000000000000000000000000087
:0C0D740000000000000000000000000073
:10D00000113C4027058EEFD12008113C8027268E49
:10D01000EFE6BDD2EAEC6C108E04C2BDD1928E0454
:10D02000C2BDD2EABDD2F78ED757AF6C8ED000AF5B
:10D03000688603A7623B3B113D018643B7C0088663
:10D04000D5B7C0088EEF54C602A680270AF5C008DF
:10D0500027FBB7C00920F28E0000AF84AC842609FC
:10D0600030028C800026F32012C680108E800031A2
:10D070003F26FC5A26F58EEFAF20CC8E0000310102
:10D0800010867FFF6F8411381210CE800086011F3A
:10D090008B860197568EEF9FBDD2EABDD355BDDA80
:10D0A0002E8695B7C0081CBF0D4627068E0001BD11
:10D0B000E905104FDD2C9749BDD1668D0220F3BDE7
:10D0C000D38C27100D25264DBDD4A5261CBDD3E439
:10D0D0009E0420EB0D492604DC2C2701398EEFC27B
:10D0E0000D25270230037ED2EA96442705C606BDE9
:10D0F000D7548D0C8ED0FB34101F25BDD88520BF92
:10D100009E04DC2810370127088620A184260230DF
:10D11000011F10204CBDD4A5271C0D4327108DE006
:10D120008ED12734101F25BDD8859F0420911F2143
:10D130008D209E042089BDD3E40D3F26073710BD06
:10D14000D56E20EEAE42BDD56EAEC4BDD56E3344B5
:10D1500020E0109E08109F1486BDBDD585109F0845
:10D16000399320DD2A398E043E9F20C684BDD30D1D
:10D170004FDD265FDD28DD2A393404C630840F8177
:10D180000A2502C637103098A7A035043944444414
:10D19000443934068DF78DE1A6E48DDDA6618DED71
:10D1A0008DD7A6618DD335066FA43934068DDE8DFB
:10D1B000C8A6E48DC435066FA4393402A680A7A0A2
:10D1C00026FA3502398DF3313F20E08DED313F20D5
:10D1D000C18E0512BDD2EA7ED2F7B6C008340296DF
:10D1E00056340286019756BDD2F7108E05128ED2A4
:10D1F0001DA6628DD0EC638DD2EC658DCEA6678DB9
:10D20000C4EC688DC6EC6A8DC2EC6C8DBEEC6E8D84
:10D21000BA33E8101F308DB38DB732623B434320E1
:10D220000020442000205720002044502000205897
:10D2300020002059200020552000205043200020AD
:10D240005320003410105F105CA68026FA105A3567
:10D2500010393416B6C00885802731F6C009C103DD
:10D26000272DC113273CC111273B9655810F260955
:10D270003404C6D5F7C00835048140270F4C9755B4
:10D280008E01579653E7864C843F975335163B32B1
:10D2900064965497530F5510AE618ED757AF61C641
:10D2A000033B4F20028601975620E134160D552688
:10D2B0000FC695F7C0081CBF8E0001BDE97120EDB7
:10D2C0001A400A551CBF8E01579654E686E7E44C77
:10D2D000843F97543516393404C602F5C00827FB3D
:10D2E0000D5627FCB7C0093504393416A68027042B
:10D2F0008DE520F835163934108EEFAC8DEC3510F5
:10D300003986088DD286208DCE860820CA5D2601FA
:10D310003934168D968108260BE16127F68DE230AF
:10D320001F5C20EF8115260BE16127E78DD3301FAD
:10D330005C20F5810D27078D9EA7805A26D5862073
:10D340008D951F10A362E761351639CE0340398EE3
:10D35000043E9F00398DF48DF68EEF401086000C50
:10D36000108E0D80109F06113812109F08BDDB1B18
:10D370007EED143406DC282606DC20D326DD2810BA
:10D3800037103506250139C612BDD7548DE527085B
:10D39000A680812027F6301F1FA89F021F8A395FB1
:10D3A0008DD1270AA6805C812026F5301F5A1FA840
:10D3B0009F04D7411F8A398DBA2702A68039E68497
:10D3C00034108EF103A6812707103798270720F520
:10D3D0000F3635103996239736A61F972335103010
:10D3E000010A41390F3E0F3F964197429E028DCE72
:10D3F000A684812D26060A410C3E30011F121FC152
:10D40000BDD7E5BDD7E51F21BDD7E54FD6411F01EB
:10D41000BDD7E5BDE62A37101F103710104D27176E
:10D42000108300012623A684812E261D0C3F0D3E6D
:10D430002725BDE5412020ECC12705C604BDD754F2
:10D440000D3E2713BDE12F200E3344964297419E97
:10D4500002C602BDD75412963627029723390F3ED3
:10D460001F100D402708104D2A040C3E10401F06C7
:10D47000104F108E05256FA2119E228630C10A25FD
:10D48000028637103089E7A2104F105D26EAC620C9
:10D490000D3E2702C62DE7A2C620108C05122601DC
:10D4A00039E7A220F59E02BDD39F9E089F1A9E02D7
:10D4B000109E0626061FC2109F0E39A6A4841F3494
:10D4C0002010378926383121A6A01F9EE680C16131
:10D4D0002506C17B2402C0201037891FE9261F5A68
:10D4E00026E63510E6844F584997434F58499744EC
:10D4F0009E049F023122DC1A103220DD0E393520C5
:10D50000109F1A4FE6A0C41F31AB9E02D64110AE49
:10D51000A420A010389E089F0C9E069F0ABDD885A7
:10D52000BDD38C2605C605BDD754BDD39F109E0222
:10D5300010322134109E08A66181202505C610BD39
:10D54000D754A78010A6E11E121FF9A6808161257D
:10D5500006817B24028020A7A05A26EF1F10BDD190
:10D56000619E06AFA1109F08109F12103939109EBE
:10D5700008868E8D1086BD109F148D06109F083969
:10D58000867E8ED7E5A7A0AFA139BDDAFC10AEC468
:10D59000AE421037211FA91FC133441F9A39BDDB8A
:10D5A0000110A6C410AE42AE4433463934301F21B8
:10D5B0008CDB0B25058CEF40250D8C0D8025049C04
:10D5C0000825044F3530399E061096083410E68041
:10D5D000C41F3AEC811037122530103762222B35E8
:10D5E00010E680C41F1F9F114F10AEE41138126F58
:10D5F000A43002EC62103210270B3402862BA7A055
:10D600003502BDD19235301CFB391039104D27B38E
:10D610001F0110810D8026B41086EF4020AE3430FB
:10D620008D8A261B8ED644EC81270B1037202706C7
:10D63000A68026FC20F110AEE4A680A7A026FA3230
:10D6400062352039D000494F445A48444C00D80430
:10D6500044504F50524100D7F24450534852410079
:10D66000D84652504F50524100D82F525053485232
:10D670004100D75445525248444C5200DAF7434BCC
:10D68000445054524100DAEC43484B4E445054004D
:10D69000D58D434D5032524100D5A1414351564D95
:10D6A000524100D0BD4D494E544C524100D4564ECB
:10D6B000554D4356524100D0D04E4D4356495241EC
:10D6C00000D1394E4D435643524100D0FB494E5490
:10D6D0005250524100D127434F4D504C524100D13E
:10D6E00052454D584153585400D52A4C574D4E522F
:10D6F0004100DA834346523153524100D7E54E5040
:10D7000055534800D817525055534800D7F34E5040
:10D710004F5000D83052504F5000D2EA5055545319
:10D720000000003F3F3F003420108E04C28620A737
:10D73000A08628A7A0DC2CBDD192862FA7A0DC2A2A
:10D74000BDD1928629A7A06FA48E04C2BDD2EA35AE
:10D75000207ED2F710AEE434108EEFC8BDD2EA3589
:10D7600010C10226188627BDD2D7A680BDD2D70AFF
:10D770004126F78627BDD2D78620BDD2D78EEFFAB5
:10D780005D2707A68026FC5A20F6BDD2EA8D981F99
:10D79000203406108E04C2BDD1928620A7A01F217E
:10D7A0003520BDD61E8E04C2BDD2EABDD2F7108C84
:10D7B000D00027023262118C8000240510AEE420D4
:10D7C000CE10CE80000D2527100F259E0C9F080D32
:10D7D0003426049E0A9F060F34BDD34FBDD34BBDE4
:10D7E000ED147ED0B21183024023033610395FBDA1
:10D7F000D7541211830340240637101037C139C69D
:10D8000001BDD754123406CC043E930010471FA824
:10D81000E7E41F8A3506398DEC817F270D1F27101D
:10D820009E00AFA3109F001F7239C607BDD75412C8
:10D830008DD3270D1F27109E00AEA1109F001F72D1
:10D8400039C608BDD7540D35260139C609BDD75490
:10D8500034101FC10D4927029E208DBB9E2C8DB711
:10D860009E2A8DB39E268DAF3510398DC39F268D90
:10D87000BF9F2A8DBB9F2C8DB70F491037C127043E
:10D880009F2003493934209E2C271E1038BDD7E530
:10D89000BDDC1C103937109F201F12DC2631AB1065
:10D8A0009F283520DC2A308B398E043E0D4927E72E
:10D8B0009E2020E3202503151720000034168E013A
:10D8C0004C8D1E5D26FB4FE6013606E6023606E667
:10D8D000033606E6043606E6053606E6063606355F
:10D8E000965F34108EC0408D623510A10627015C12
:10D8F000A70634108EC0428D523510847FA10527B3
:10D90000015CA70534108EC0448D403510843FA1C2
:10D910000427015CA70434108EC0468D2E35108478
:10D920003FA10327015CA70334108EC0488D1C352E
:10D9300010841FA10227015CA70234108EC04A8DFB
:10D940000A3510A10127015CA701393404A601485A
:10D95000484848E600C40F3404ABE0358434163040
:10D960008DFF518607B7C04F8604B7C04E4FB7C072
:10D970004DA60134108EC04A8D403510A6023410D9
:10D980008EC0488D353510A60334108EC0468D2AC2
:10D990003510A60434108EC0448D1F3510A60534F2
:10D9A000108EC0428D143510A60634108EC0408DE6
:10D9B0000935108604B7C04F359634041F89444496
:10D9C0004444A701C40FE7003584B6C0C78580264C
:10D9D000F9398DF627031A04398E20008640B5C028
:10D9E000C72604301F26F7398DE0B6C0C78401274B
:10D9F00003B6C0C1398DDB270AD747F7C0C78DE80A
:10DA000097483986FF20F98DC986E0B7C0C620C285
:10DA10009E083088363410118614EC841E98ED81EF
:10DA2000114A26F66F843510BDD2EA7ED2F70F4632
:10DA30008DA027308DD18601B7C0C1C6EF8DB62627
:10DA400023860AB7C0C28603B7C0C18DA88682B735
:10DA5000C0C18DA1C6EC8D9D260A9E088D078DB094
:10DA60008601974639B6C0C785082712108602007E
:10DA7000108EC0C034011A50113B21350139C61136
:10DA8000BDD75412B6C0C78488810826F710860215
:10DA900000108EC0C0113A1239BDD9CABDDA07ECE8
:10DAA000641048F7C0C3B7C0C41FA88401B7C0C57D
:10DAB0008602B7C0C2390D46260220C21F278DD963
:10DAC000C620BDD9F5AE648D9CBDD9CA8D971F7295
:10DAD000390D46260220A71F278DBEC630BDD9F5B9
:10DAE000AE648DA0BDD9CA8D9B1F72391037032239
:10DAF0000139C601BDD754CC033E20F0CC033C20F5
:10DB0000EBCC033A20E6CC033820E10D454D5054D0
:10DB1000592D425546464552530000104FDD1E8E8A
:10DB200005608D038E097030890400ED8439034D42
:10DB30004343DB0B4FD64A1F0130017ED7E5074137
:10DB40004C49474E4544DB2E20AD054348415253D6
:10DB5000DB3E20A30543454C4C2BDB4A8D99ECC49E
:10DB6000C30002EDC4390C534156452D425546467B
:10DB7000455253DB548E05608D038E097034263474
:10DB8000108605A489040181052617AE8904023494
:10DB900010BDDAD13262AEE430890401A68484FB80
:10DBA000A784351035263905464C555348DB668D1C
:10DBB000C47EDB1B06555044415445DBA79E1E27FF
:10DBC0000A30890401A6848A04A78439064255468E
:10DBD000464552DBB4BDD7F31F128E0560C602A6C0
:10DBE0008904018501270C10AC89040226059F1EBB
:10DBF000361039308904105A26E58E05609C1E26A1
:10DC0000038E0970BDDB7D8601A789040110AF89F1
:10DC1000040220DA05424C4F434BDBCC8DB7371062
:10DC20003410A6890401840226133420BDDAB632EA
:10DC300062AEE430890401A6848A02A784351036D6
:10DC4000103906524546494C4CDC149E2C260B0DCF
:10DC50004910260DACBDD166200830019F2C1FC194
:10DC60009F2A7EEA0D03424C4BDC428E012C7ED76C
:10DC7000E5033E494EDC658E012A7ED7E50353431A
:10DC800052DC718E012E7ED7E5055449434B53DC9F
:10DC90007D1FC1BDD7E57ED7E50452544340DC89E2
:10DCA000BDEDB01FC17ED7E50452544321DC997EFF
:10DCB000E5DF0457544340DCA87ED8BC04575443E6
:10DCC00021DCB27ED95D044C495354DCBC0D4626A0
:10DCD00005C611BDD754BDEDA1BDDC1CBDD7F31FDA
:10DCE00012BDD7F39F2EC6103404BDD2F71F21BD3D
:10DCF000D7E58E0040BDD7E5103012BDE88435046D
:10DD00005A26E53905414C49474EDCC63903533E96
:10DD100044DD04BDD7F33610104F1E014D102AFA12
:10DD2000C4301F7ED7E5054445505448DD0DCC0373
:10DD30004010323010441F017ED7E5064352454162
:10DD40005445DD26BDD513868EA7A01F213008AF10
:10DD5000A186BDBDD5828639A7A03122109F089E1D
:10DD60000C9F0639C5444F45533EDD3B8EDD727E28
:10DD7000D1529E06E680C41F3A3008A68481392716
:10DD800005C60EBDD754867EA780352010AF8439D6
:10DD9000874C49544552414CDD64BDD7F30D2526CF
:10DDA0000139109E08868EBDD585109F088ED7E557
:10DDB0007ED15208434F4E5354414E54DD90BDD74F
:10DDC000F31F16BDD5131F61868EBDD585BDD580C9
:10DDD000208A085641524941424C45DDB3BDD51316
:10DDE000868EA7A01F2631251F211F62AFA1BDD59A
:10DDF0008031227EDD5C09494D4D45444941544501
:10DE0000DDD2C6809E06A684103598A784390852B4
:10DE100045535452494354DDF6C64020E709554E58
:10DE20004D4F4E49544F52DE0E39074D4F4E495417
:10DE30004F52DE1D390649434845434BDE2A39C35C
:10DE40003F444FDE358EDE6CBDD1520C4ACC2603EA
:10DE5000EDA1867EA7A01F21BDD7E53122109F0826
:10DE60001F21BDD7E5104FDD180C3539BDDAFCAEEA
:10DE70004210AEC43344103721270ABDD8171F21E2
:10DE8000BDD8171CFB39C2444FDE3F8EDE9FBDD18B
:10DE9000520C4A1FC1BDD7E51F21BDD7E520C6BD25
:10DEA000EDBABDE1DE7EE1DEC44C4F4F50DE868E22
:10DEB000DEEFBDD1528E2503AFA1BDD7F3867EBD67
:10DEC000D585109F08109F169E18270BEC8410AF65
:10DED000841F01104D20F39F180A35BDD7F326018A
:10DEE000390C35BDD7E58E0001BDD7E57EDF978EB5
:10DEF00000012010C52B4C4F4F50DEA88EDF0120B3
:10DF0000B1BDD7F31F16BDD8301F12BDD830CC809D
:10DF100000103020103210103060290EBDD81710BC
:10DF200030621F21BDD8171CFE391A013946554EE3
:10DF30004C4F4F50DEF4BDD8307ED830C5414845F7
:10DF40004144DF2D109E08867EA7A01F213122109C
:10DF50009F080C35BDD7E58E00017ED7E5C2494646
:10DF6000DF3C8ED7F3BDD152CC2603EDA10C4A2065
:10DF7000D6C6554E4C455353DF5D8EE082BDD1521F
:10DF800020E0C4454C5345DF718DB9BDE5C3200782
:10DF9000C45448454EDF82BDD7F3301F1026F8AB7E
:10DFA000109E08BDD7F310AF84109F160A353901B3
:10DFB0003DDF90BDDAFC10ECC433421FC110376066
:10DFC0002602301FAFC439023C3EDFAFBDDAFC1081
:10DFD000ECC433421FC11037602702301FAFC43971
:10DFE000023C3DDFC7BDDAFC10AEC4AE42104F109C
:10DFF00037212E02104A3342EDC43903584F52DF05
:10E00000E0BDDAFCECC410A6421036603342EDC429
:10E0100039024F52DFFBBDDAFCECC410A6421035CA
:10E020006020E903414E44E011BDDAFCECC410A6C7
:10E030004210346020D606494E56455254E023BD66
:10E04000D7F31F1010431F0136103902303EE0365F
:10E05000BDD7F31F10104D2F068EFFFF3610391F4E
:10E06000C136103902303CE04BBDD7F31F10104DC4
:10E070002C068EFFFF3610391FC136103902303D95
:10E08000E064BDD7F31F101FC1104D2703361039B0
:10E09000301F20F903303C3EE07D8DE620A1034E89
:10E0A0004F54E09420DC02553EE09EBDD58A230209
:10E0B000301F36103902553CE0A6BDD58A24023007
:10E0C0001F361039013EE0B5BDD58A2F02301F360C
:10E0D0001039013CE0C4BDD58A2C02301F361039FE
:10E0E000034D4158E0D2BDD7F31F12BDD7F310370F
:10E0F000212C021F21361039034D494EE0E0BDD7D7
:10E10000F31F12BDD7F31037212F021F213610390C
:10E1100003414253E0F8BDD7F31F10104D2A0410FD
:10E12000401F01361039064E4547415445E110BDA8
:10E13000DAF7ECC41040EDC439C5424547494EE119
:10E14000260C359E08BDD7E51FC17ED7E5C54147E2
:10E1500041494EE139BDD7F31026F6EFBDD7F31094
:10E160009E08109F14867EBDD585109F080A350C29
:10E170004A39C445584954E14D9E08301D109E143B
:10E180001037212605867EA7843930038639A7807B
:10E190009F0839C5554E54494CE172BDD7F310263E
:10E1A000F6A98ED7F3BDD1528E2603AFA1BDD7F30A
:10E1B00020B3C55748494C45E193BDDF627EE5C3B6
:10E1C000C6524550454154E1B28D8A7EDF97425296
:10E1D0003EE1C0BDD8307ED7E5423E52E1CEBDD74C
:10E1E000F37ED817C54C45415645E1D98EDF36BD83
:10E1F000D152867EA7A01F21DC18EDA19F18109F89
:10E2000008394149E1E45FBDD805103789240A9EE9
:10E21000004F1048AE8B7ED7E5C608BDD75442529A
:10E2200040E20220E1424927E21EC60120D9414ACC
:10E23000E225C60220D1424A27E22EC60320C84169
:10E240004BE236C60420C00451554954E23F0F2525
:10E25000BDD34F10CE8000BDD2F77ED0B205414273
:10E260004F5254E247C603BDD7540446494E44E2D8
:10E270005DBDDAF7AEC42605C60DBDD7546D842644
:10E28000051FC17ED7E5DC023406E680D7419F0238
:10E29000BDD4AADC0EDD103506DD021037C227E141
:10E2A00010AFC48EFFFF0D43270230027ED7E50179
:10E2B0005DE26A86FF972539C15BE2AF4F20F60128
:10E2C00027E2B8BDE82DBDE43C8DA6ECC42703339E
:10E2D000423933449E02BDD38CC602BDD754C35BC2
:10E2E000275DE2BF8DDD7EDD9AC8504F5354504FFD
:10E2F0004E45E2DEBDD885BDD38C2605C605BDD70B
:10E3000054BDD4A526079E02C602BDD7541F210DB9
:10E31000432708BDD152DC027ED161BDD56E8EE3AC
:10E320002E20F048434F4D50494C452CE2E9BDD7D3
:10E33000F37ED152013AE3230F34CCFFFF9725102F
:10E34000439735974ADD14DD160D3426037ED51329
:10E350009E089F0C9F1239073A4E4F4E414D45E3A0
:10E36000348601973420D3C13BE357BDD8460F25EF
:10E370009E0C0D3426049F0620050F34BDD7E59E64
:10E3800008DC142713311D103702260C867EA7A443
:10E39000109E1610371226048639A7809F0839C7A9
:10E3A00052454355525345E3679E127ED152064D66
:10E3B00041524B4552E39F109E089E063430BDD516
:10E3C00013AE62868EBDD585CC9F08EDA1AEE486E6
:10E3D0008EBDD585CC9F06EDA18639A7A032647E7F
:10E3E000DD5C0745584543555445E3AEBDD7F3279B
:10E3F000021F15C60DBDD75403425945E3E27ED036
:10E4000037C65B434841525DE3F88D0A7EDD9A04CE
:10E4100043484152E401BDD885BDD38C2712E68420
:10E420004F1F01BDD7E59E02BDD39F1F107ED16156
:10E43000C60DBDD75404574F5244E40F0F4BBDD700
:10E44000F31F16109E0834206FA0BDD885BDD3B72A
:10E45000271B0D4B260C1037F827F2301FBDD3B702
:10E46000270B1037F82706A7A06CF420F01F10BD6B
:10E47000D16135103610398128E4358E0029BDD799
:10E48000E58DB97EEDB006534F55524345E4779E76
:10E4900020BDD7E59E267ED7E5815CE486DC2C276F
:10E4A0000BDC2AC4C0CB408900DD2A398DE1BDD701
:10E4B000F39F2A7EEDB0822E22E4998D120D25263F
:10E4C000037EE8848EE8847ED152825322E4B686AD
:10E4D00001974B0D25260C8E0022BDD7E5BDE43EED
:10E4E0007EE8A2109E08867EA7A034203122109FCD
:10E4F000088E0022BDD7E5BDE43EBDD7F34FE684CC
:10E500003001308B3520AFA43122868EA78010AF2A
:10E51000819F088ED7E5BDD1528EE8A27ED15202EE
:10E52000442BE4CABDDB06EC46E342ED46EC441066
:10E53000A9C4ED4433443907444E4547415445E5A9
:10E540001FBDDAFC10A6421053ECC41043108B0020
:10E55000011089000010EDC43902442DE537BDDB00
:10E5600006EC46A342ED46EC4410A2C4ED4433440D
:10E57000390344303DE559BDE0167EE08202443C5B
:10E58000E571BDDB06115FECC410A3442611EC421B
:10E5900010A3462302115A1FF91DED463346392FA9
:10E5A000F620F205324F564552E57DBDDB0610ECF4
:10E5B000441F61BDD7E51F017ED7E50532535741A2
:10E5C00050E5A3BDDB06AE4410AE4610ECC410ED22
:10E5D00044AFC410AF4239053244524F50E5BBBD81
:10E5E000DAFC3344390432445550E5D7BDDAFC1027
:10E5F000ECC41F61BDD7E51F017ED7E5023221E5DE
:10E60000E5BDDB0110EC4210EDD433463902324057
:10E61000E5FCBDDAF710ECD410A7C41F017ED7E5E6
:10E62000073E4E554D424552E60DBDDB06AE42EC6F
:10E63000C42770E684C030256AC10A2510C111259F
:10E6400062C1312506C14A225AC020C007D1232405
:10E650005232766FE4E7611F373348316211860426
:10E66000A6C2D6233DEDA1114A26F51F73A663A7C6
:10E6700047A662AB65A746A664A967A745A666A993
:10E6800069A74425216D68261DEC46E3E4ED46ECC0
:10E690004410890000ED44326AECC4104AEDC430E5
:10E6A00001208CAF4239C604BDD75402233EE62078
:10E6B000BDD7F3BDD7F38E01EB3610BDD2431F613A
:10E6C000361039045349474EE6ABBDD7F31F10103F
:10E6D0004D2C04C62D20663904484F4C44E6C3BD7A
:10E6E000D7F31F102057022353E6D88601973D2009
:10E6F000060123E6E60F3DBDD7F31F12BDD7F33267
:10E70000E8EFDC22ED6EAF6C10AF6A8D43E66186F8
:10E7100030C10A250286371030898D210D3D271121
:10E72000EC6810AA66270AAE6810AE6632E81120BF
:10E73000CEAE683610AE66361032E811398E01EB77
:10E74000BDD243103061105C3101113912D7EB3961
:10E75000CC8000ED644FED66ED68ED6AED6211C6A8
:10E760001F686369621FA88401A7E812EC6E104855
:10E77000ED6EEC6C1049ED6C1FA88401AA63A763D1
:10E780001F89A6626DE812260610A3E8102513A3C0
:10E79000E810ED62EC6810AA64ED68EC6A10AA66F5
:10E7A000ED6AEC641044ED64EC661046ED66115AB7
:10E7B0002CAF39023C23E6F10FEB39012EE7B3868B
:10E7C000019740BDD7F3BDD45E8E05128620A1808F
:10E7D00027FC301FBDD2EA7ED2D702552EE7BB0FF1
:10E7E0004020E0022E52E7DA86019740BDD7F3348D
:10E7F00010BDD7F3BDD45E8E05128620A18027FC04
:10E80000301FBDD24335061E061032062F0D86205E
:10E81000105D2707BDD2D7105A20F57ED2EA0355E6
:10E820002E52E7E30F4020C402424CE81E8E002027
:10E830007ED7E5055350414345E82886207ED2D750
:10E8400006535041434553E833BDD7F386201F1686
:10E85000105D260139BDD2D7105A20F60450414729
:10E8600045E8408EEF4C7ED2EA024352E85C7ED20D
:10E87000F703504144E8698E01977ED7E504545967
:10E880005045E871BDD7F31F16BDD7F3105D2601C3
:10E8900039A680BDD2D7105A20F405434F554E54A7
:10E8A000E87DBDD7F3E68036104F1F017ED7E50621
:10E8B000414343455054E89ABDD7F31F10BDD7F3E9
:10E8C000BDD30D4F36063949494E54455250524535
:10E8D00054E8AF9E2C260B8E043E0D4927109E2037
:10E8E000200CBDD7E5BDDC1C3710104FDD289F2064
:10E8F000DC2A1030017ED0BF044C4F4144E8C7BD34
:10E90000D7F3260139BDD8509F2CCC0400DD26104A
:10E910004F9749DD2ADD288DBABDD86B7ED8850892
:10E920004556414C55415445E8F8BDDAFCAE42101D
:10E93000AEC43344BDD8509F20109F2686FF974910
:10E94000104FDD2C20CD0454485255E91FBDD7F39C
:10E950001F12BDD7F3103712240139343036108D11
:10E960009E3530300120EE024D53E946BDD7F327E6
:10E970000BCC00C2104A26FC301F26F539044B454B
:10E98000593FE9671FC10D552702301F7ED7E503A8
:10E990004B4559E97DBDD2AB1F894F1F017ED7E59D
:10E9A00004454D4954E98FBDD7F31F101F987ED2FF
:10E9B000D7012BE9A0BDDAFCEC42E3C4ED423342BF
:10E9C0003902312DE9B1BDDAF7ECC4104AEDC43992
:10E9D00002312BE9C1BDDAF7ECC4104CEDC43905A6
:10E9E000434841522BE9D020EC012DE9DFBDDAFC90
:10E9F000EC42A3C4ED423342390546414C5345E94C
:10EA0000E91FC17ED7E50454525545E9F98EFFFF51
:10EA10007ED7E5055348494654EA06BDDAFC10A600
:10EA2000C4EC42105D27122D081048270C105A2004
:10EA3000F210442704105C20EAED42334239012AE7
:10EA4000EA130F3ABDDAFCEC4211AFC410A7420D35
:10EA50003A2603334239EDC439024D2AEA3E860193
:10EA6000973A20E003554D2AEA59BDDAFC327AEF95
:10EA700064104FEDE4ED623141336311C602AE64C0
:10EA80003003118602A684E6A43DE35FED5F240215
:10EA90006C5E335F301F114A26EB3341313F115A10
:10EAA00026DCEE6410ECE410EDC432663905434513
:10EAB0004C4C53EA64200502322AEAADBDDAF7EC89
:10EAC000C41048EDC43902322FEAB7BDDAF7ECC4FE
:10EAD0001047EDC439034D4F44EAC68601973720ED
:10EAE00031042F4D4F44EAD50F37202606464D2FCF
:10EAF0004D4F44EAE186089737201706534D2F52B1
:10EB0000454DEAEC861897372008012FEAFB86026C
:10EB100097370F3B0F380F398601D637C5082702C4
:10EB20009738C51027029739C407D7370D382605FF
:10EB3000BDDAFC2003BDDB010D392608A642A8C4BE
:10EB40002A020C3B0D38270510EC422009104F100B
:10EB5000A6422A02104311AEC48D1F0D382702337E
:10EB6000420D372606ED4210A7C43933421F0796DF
:10EB700037810126F21F70EDC439104D27080D3B77
:10EB80002704105AE3C439022A2FEB0A8601973C66
:10EB9000BDDB010F3BEC4411AF423402A8C42A0292
:10EBA0000C3B350211AEC48DD133420D3C2606ED2F
:10EBB0004210A7C439334210A7C439052A2F4D4F3C
:10EBC00044EB870F3C20C906554D2F4D4F44EBBBFE
:10EBD000BDDB01ECC42605C604BDD754BDD7F31F69
:10EBE00010BDD7F31F12BDD7F332E8EFED6EAF6C57
:10EBF00010AF6ABDE750EC6626DDAEE43610AE68B5
:10EC0000361032E811390153EBC71F417ED7E502B8
:10EC10005340EC06AEE47ED7E5075041594C4F41D6
:10EC200044EC0F9E107ED7E505574F524453EC1924
:10EC30009E089F1A9E069F1C108E0512E6803404C3
:10EC4000C41F4F34041F061138123502C62010327B
:10EC5000898620A7A05A26FB6FA03410BDD2F78E5C
:10EC60000512BDD2EAAEE430021F10108E0512BDAF
:10EC7000D1928E0512BDD2EA8609BDD2D79E1A1056
:10EC8000AEE431221032211F10108E0512BDD19238
:10EC90008E0512BDD2EA8609BDD2D78E0512E66274
:10ECA000862DC58027028649A780862DC54027026C
:10ECB0008643A780865210AEE43122108C0D842743
:10ECC00008108CD00024028657A7806F848E05120E
:10ECD000BDD2EA9E1C8C0D8026088EEF369F1C8EBE
:10ECE000EF409F1A35103504AE841026FF483905D1
:10ECF0005354415445EC288E01247ED7E50442410B
:10ED00005345ECEF8E01227ED7E507444543494D3C
:10ED1000414CECFDCC000ADD223903484558ED0A90
:10ED2000CC001020F2022E27ED1ABDD7F31F128E51
:10ED300004C2BDD61E8E04C27ED2EA022E53ED2539
:10ED4000CC03401032301044272A3440CE03408692
:10ED50000197403404AEC3BDD45E8E0512A68081F7
:10ED60002027FA301FBDD2EA8620BDD2D735045AFB
:10ED700026E1354039043F445550ED3BBDD7F336CD
:10ED8000101026EA6039045455434BED758D2B2045
:10ED900065034E4950ED868D21201503445550EDF5
:10EDA00091BDDAF7AEC47ED7E50444524F50ED9BD7
:10EDB0007ED7F30453574150EDA9BDDAFC10ECC4E3
:10EDC0001E0610EDC439045049434BEDB3BDD7F3D3
:10EDD000CC03401032301044103701240D1F1010A6
:10EDE0004830CB1F12AE84361039C60DBDD754043F
:10EDF0004F564552EDC68E000120D504524F4C4C63
:10EE0000EDEFBDD7F31F168DC73121303E105C10DA
:10EE100030661139127ED7F303524F54EDFB8E004A
:10EE20000220E2042D524F54EE188DF220F00243DE
:10EE30002CEE23BDD7F31F10109E08E7A0109F08EB
:10EE400039012CEE2EBDD7F3109E08AFA1109F08FC
:10EE50003905414C4C4F54EE41BDD7F3DC08308BA3
:10EE60009F08390446494C4CEE51BDD7F31F16BDDF
:10EE7000D7F31F121E26BDD7F3105D2F0B1F20E7FF
:10EE800084105A31011138123905424C414E4BEE73
:10EE9000631086002020D806434D4F56453EEE892C
:10EEA000BDD59E105D270D105A10306110306210D4
:10EEB0005C1139123905434D4F5645EE97BDD59E2D
:10EEC00011381239044D4F5645EEB5BDD59E105D33
:10EED000270D1F2010321010376025CB1138123942
:10EEE000044C415354EEC49E067ED7E50448455277
:10EEF00045EEE09E087ED7E5022B21EEECBDDAFC64
:10EF0000AEC4EC84E342ED84334439024321EEF88D
:10EF1000BDDAFCA643A7D43344390121EF0BBDDA97
:10EF2000FCEC42EDD4334439024340EF1ABDDAF72A
:10EF30004FE6D4EDC439013FEF28BD0D847EE7BF15
:10EF40000140EF36BDDAF7ECD4EDC4391B5B481B4A
:10EF50005B4A0D000D0A5A3739466F7274682F41AB
:10EF600049203633303920414E5320466F72746841
:10EF70002053797374656D0D0A323032343130317B
:10EF80003720284329204672616E636F6973204CD5
:10EF9000616167656C20323031390D0A0D0A00520B
:10EFA000414D204F4B3A203332204B420D0A005244
:10EFB000414D20636865636B206661696C65640D13
:10EFC0000A00206F6B0D0A000F1B5B3F3235680D86
:10EFD00000496C6C6567616C206F70636F646520BD
:10EFE0006E65617220004469766973696F6E206294
:10EFF000792030206E656172200044617461207355
:10F000007461636B206F766572666C6F7700446124
:10F01000746120737461636B20756E646572666CD5
:10F020006F77003F00557365722041424F52540084
:10F030004F6F52206572726F72004D697373696E03
:10F040006720776F7264206E616D6500496E636F33
:10F05000727265637420535441544500526574754F
:10F06000726E20737461636B206F766572666C6F6D
:10F07000770052657475726E20737461636B2075CE
:10F080006E646572666C6F7700496C6C6567616C65
:10F0900020636F6E7374727563740041737365726D
:10F0A00074696F6E206661696C656400004D6973F8
:10F0B00073696E672064656C696D69746572004977
:10F0C0006C6C6567616C20617267756D656E74004C
:10F0D0004E6F206D61746368696E672043524541CD
:10F0E000544500004E616D6520746F6F206C6F6E2B
:10F0F0006700494F206572726F72003E494E204F83
:0EF100006F52002410230A260A250240080040
:10FFF000D000D036D036D252D036D036D1DAD03743
:00000001FF